{
  "contractName": "Shop",
  "abi": [
    {
      "constant": true,
      "inputs": [
        {
          "name": "",
          "type": "uint256"
        }
      ],
      "name": "goods",
      "outputs": [
        {
          "name": "id",
          "type": "uint256"
        },
        {
          "name": "owner",
          "type": "address"
        },
        {
          "name": "buyer",
          "type": "address"
        },
        {
          "name": "price",
          "type": "uint256"
        },
        {
          "name": "state",
          "type": "uint256"
        },
        {
          "name": "money",
          "type": "uint256"
        }
      ],
      "payable": false,
      "stateMutability": "view",
      "type": "function"
    },
    {
      "constant": true,
      "inputs": [],
      "name": "num",
      "outputs": [
        {
          "name": "",
          "type": "uint256"
        }
      ],
      "payable": false,
      "stateMutability": "view",
      "type": "function"
    },
    {
      "constant": true,
      "inputs": [
        {
          "name": "",
          "type": "address"
        }
      ],
      "name": "bal",
      "outputs": [
        {
          "name": "",
          "type": "uint256"
        }
      ],
      "payable": false,
      "stateMutability": "view",
      "type": "function"
    },
    {
      "inputs": [],
      "payable": true,
      "stateMutability": "payable",
      "type": "constructor"
    },
    {
      "anonymous": false,
      "inputs": [
        {
          "indexed": false,
          "name": "",
          "type": "uint256"
        },
        {
          "indexed": false,
          "name": "",
          "type": "uint256"
        },
        {
          "indexed": false,
          "name": "",
          "type": "uint256"
        }
      ],
      "name": "coming",
      "type": "event"
    },
    {
      "constant": false,
      "inputs": [
        {
          "name": "price",
          "type": "uint256"
        }
      ],
      "name": "createGood",
      "outputs": [
        {
          "name": "",
          "type": "uint256"
        }
      ],
      "payable": false,
      "stateMutability": "nonpayable",
      "type": "function"
    },
    {
      "constant": false,
      "inputs": [
        {
          "name": "id",
          "type": "uint256"
        }
      ],
      "name": "buy",
      "outputs": [],
      "payable": true,
      "stateMutability": "payable",
      "type": "function"
    },
    {
      "constant": false,
      "inputs": [
        {
          "name": "id",
          "type": "uint256"
        }
      ],
      "name": "acc",
      "outputs": [],
      "payable": false,
      "stateMutability": "nonpayable",
      "type": "function"
    },
    {
      "constant": false,
      "inputs": [
        {
          "name": "id",
          "type": "uint256"
        }
      ],
      "name": "ret",
      "outputs": [],
      "payable": false,
      "stateMutability": "nonpayable",
      "type": "function"
    },
    {
      "constant": false,
      "inputs": [],
      "name": "getback",
      "outputs": [
        {
          "name": "",
          "type": "bool"
        }
      ],
      "payable": false,
      "stateMutability": "nonpayable",
      "type": "function"
    },
    {
      "constant": false,
      "inputs": [],
      "name": "getNum",
      "outputs": [
        {
          "name": "",
          "type": "uint256"
        }
      ],
      "payable": false,
      "stateMutability": "nonpayable",
      "type": "function"
    },
    {
      "constant": false,
      "inputs": [
        {
          "name": "id",
          "type": "uint256"
        }
      ],
      "name": "getGoods",
      "outputs": [
        {
          "name": "",
          "type": "uint256"
        },
        {
          "name": "",
          "type": "address"
        },
        {
          "name": "",
          "type": "address"
        },
        {
          "name": "",
          "type": "uint256"
        },
        {
          "name": "",
          "type": "uint256"
        },
        {
          "name": "",
          "type": "uint256"
        }
      ],
      "payable": false,
      "stateMutability": "nonpayable",
      "type": "function"
    },
    {
      "constant": false,
      "inputs": [
        {
          "name": "id",
          "type": "uint256"
        },
        {
          "name": "price",
          "type": "uint256"
        }
      ],
      "name": "change",
      "outputs": [],
      "payable": false,
      "stateMutability": "nonpayable",
      "type": "function"
    }
  ],
  "bytecode": "0x60606040526000600181905550610e3c8061001b6000396000f3006060604052600436106100af576000357c0100000000000000000000000000000000000000000000000000000000900463ffffffff1680632f724394146100b45780633a52c7c2146101665780633a88ce301461019257806345554d00146101c95780634e70b1dc146101ec5780635580f72a1461021557806367e0badb1461026257806387a8bbad1461028b578063b2590033146102b8578063d96a094a1461036a578063e6b0eaf114610382575b600080fd5b34156100bf57600080fd5b6100d560048080359060200190919050506103a5565b604051808781526020018673ffffffffffffffffffffffffffffffffffffffff1673ffffffffffffffffffffffffffffffffffffffff1681526020018573ffffffffffffffffffffffffffffffffffffffff1673ffffffffffffffffffffffffffffffffffffffff168152602001848152602001838152602001828152602001965050505050505060405180910390f35b341561017157600080fd5b6101906004808035906020019091908035906020019091905050610430565b005b341561019d57600080fd5b6101b36004808035906020019091905050610529565b6040518082815260200191505060405180910390f35b34156101d457600080fd5b6101ea60048080359060200190919050506106d4565b005b34156101f757600080fd5b6101ff610852565b6040518082815260200191505060405180910390f35b341561022057600080fd5b61024c600480803573ffffffffffffffffffffffffffffffffffffffff16906020019091905050610858565b6040518082815260200191505060405180910390f35b341561026d57600080fd5b610275610870565b6040518082815260200191505060405180910390f35b341561029657600080fd5b61029e61087a565b604051808215151515815260200191505060405180910390f35b34156102c357600080fd5b6102d9600480803590602001909190505061099f565b604051808781526020018673ffffffffffffffffffffffffffffffffffffffff1673ffffffffffffffffffffffffffffffffffffffff1681526020018573ffffffffffffffffffffffffffffffffffffffff1673ffffffffffffffffffffffffffffffffffffffff168152602001848152602001838152602001828152602001965050505050505060405180910390f35b6103806004808035906020019091905050610a4e565b005b341561038d57600080fd5b6103a36004808035906020019091905050610bd3565b005b6000818154811015156103b457fe5b90600052602060002090600602016000915090508060000154908060010160009054906101000a900473ffffffffffffffffffffffffffffffffffffffff16908060020160009054906101000a900473ffffffffffffffffffffffffffffffffffffffff16908060030154908060040154908060050154905086565b3373ffffffffffffffffffffffffffffffffffffffff1660008381548110151561045657fe5b906000526020600020906006020160010160009054906101000a900473ffffffffffffffffffffffffffffffffffffffff1673ffffffffffffffffffffffffffffffffffffffff161415156104aa57600080fd5b6000811115156104b957600080fd5b806000838154811015156104c957fe5b9060005260206000209060060201600301819055507f876d73141950476fb21422fce0a95bb75efd908f171b37bb7a32b4a14f941a6d82824260405180848152602001838152602001828152602001935050505060405180910390a15050565b600080805480600101828161053e9190610d51565b9160005260206000209060060201600060c06040519081016040528060015481526020013373ffffffffffffffffffffffffffffffffffffffff168152602001600073ffffffffffffffffffffffffffffffffffffffff16815260200186815260200160008152602001600081525090919091506000820151816000015560208201518160010160006101000a81548173ffffffffffffffffffffffffffffffffffffffff021916908373ffffffffffffffffffffffffffffffffffffffff16021790555060408201518160020160006101000a81548173ffffffffffffffffffffffffffffffffffffffff021916908373ffffffffffffffffffffffffffffffffffffffff160217905550606082015181600301556080820151816004015560a082015181600501555050506001600081548092919060010191905055507f876d73141950476fb21422fce0a95bb75efd908f171b37bb7a32b4a14f941a6d6001805403834260405180848152602001838152602001828152602001935050505060405180910390a160018054039050919050565b3373ffffffffffffffffffffffffffffffffffffffff166000828154811015156106fa57fe5b906000526020600020906006020160020160009054906101000a900473ffffffffffffffffffffffffffffffffffffffff1673ffffffffffffffffffffffffffffffffffffffff1614151561074e57600080fd5b600160008281548110151561075f57fe5b90600052602060002090600602016004015414151561077d57600080fd5b60008181548110151561078c57fe5b9060005260206000209060060201600501546002600080848154811015156107b057fe5b906000526020600020906006020160010160009054906101000a900473ffffffffffffffffffffffffffffffffffffffff1673ffffffffffffffffffffffffffffffffffffffff1673ffffffffffffffffffffffffffffffffffffffff16815260200190815260200160002060008282540192505081905550600260008281548110151561083a57fe5b90600052602060002090600602016004018190555050565b60015481565b60026020528060005260406000206000915090505481565b6000600154905090565b600080600260003373ffffffffffffffffffffffffffffffffffffffff1673ffffffffffffffffffffffffffffffffffffffff1681526020019081526020016000205490506000811115610996576000600260003373ffffffffffffffffffffffffffffffffffffffff1673ffffffffffffffffffffffffffffffffffffffff168152602001908152602001600020819055503373ffffffffffffffffffffffffffffffffffffffff166108fc829081150290604051600060405180830381858888f1935050505015156109955780600260003373ffffffffffffffffffffffffffffffffffffffff1673ffffffffffffffffffffffffffffffffffffffff168152602001908152602001600020819055506000915061099b565b5b600191505b5090565b600080600080600080600060015488111515156109bb57600080fd5b6000888154811015156109ca57fe5b9060005260206000209060060201905080600001548160010160009054906101000a900473ffffffffffffffffffffffffffffffffffffffff168260020160009054906101000a900473ffffffffffffffffffffffffffffffffffffffff168360030154846004015485600501549650965096509650965096505091939550919395565b3373ffffffffffffffffffffffffffffffffffffffff16600082815481101515610a7457fe5b906000526020600020906006020160010160009054906101000a900473ffffffffffffffffffffffffffffffffffffffff1673ffffffffffffffffffffffffffffffffffffffff1614151515610ac957600080fd5b600081815481101515610ad857fe5b9060005260206000209060060201600301543410151515610af857600080fd5b60008082815481101515610b0857fe5b906000526020600020906006020160040154141515610b2657600080fd5b6001600082815481101515610b3757fe5b90600052602060002090600602016004018190555034600082815481101515610b5c57fe5b90600052602060002090600602016005018190555033600082815481101515610b8157fe5b906000526020600020906006020160020160006101000a81548173ffffffffffffffffffffffffffffffffffffffff021916908373ffffffffffffffffffffffffffffffffffffffff16021790555050565b3373ffffffffffffffffffffffffffffffffffffffff16600082815481101515610bf957fe5b906000526020600020906006020160020160009054906101000a900473ffffffffffffffffffffffffffffffffffffffff1673ffffffffffffffffffffffffffffffffffffffff16141515610c4d57600080fd5b6001600082815481101515610c5e57fe5b906000526020600020906006020160040154141515610c7c57600080fd5b600081815481101515610c8b57fe5b906000526020600020906006020160050154600260008084815481101515610caf57fe5b906000526020600020906006020160020160009054906101000a900473ffffffffffffffffffffffffffffffffffffffff1673ffffffffffffffffffffffffffffffffffffffff1673ffffffffffffffffffffffffffffffffffffffff168152602001908152602001600020600082825401925050819055506003600082815481101515610d3957fe5b90600052602060002090600602016004018190555050565b815481835581811511610d7e57600602816006028360005260206000209182019101610d7d9190610d83565b5b505050565b610e0d91905b80821115610e09576000808201600090556001820160006101000a81549073ffffffffffffffffffffffffffffffffffffffff02191690556002820160006101000a81549073ffffffffffffffffffffffffffffffffffffffff021916905560038201600090556004820160009055600582016000905550600601610d89565b5090565b905600a165627a7a72305820966f89f9d55de432465f3cbedf9909a838a2493a175f2d5fe9c3fce7319234f30029",
  "source": "pragma solidity ^0.4.17;\n\ncontract Shop {\n    struct Good{\n        uint id;\n        address owner;\n        address buyer;\n        uint price;\n        uint state;\n        uint money;\n    }\n\n    Good[] public goods;\n    uint public num;\n    mapping(address => uint) public bal;\n\n    function Shop() payable public {\n        num = 0;\n    }\n\n    event coming(uint,uint,uint256);\n\n    function createGood(uint price) public returns (uint){\n        goods.push(Good({\n            id : num,\n            owner : msg.sender,\n            buyer : 0,\n            price : price,\n            state : 0,\n            money : 0\n        }));\n        num ++;\n        emit coming(num-1,price,now);\n        return num-1;\n    }\n\n    function buy(uint id) payable public {\n        require(goods[id].owner != msg.sender);\n        require(msg.value >= goods[id].price);\n        require(goods[id].state == 0);\n        goods[id].state = 1;\n        goods[id].money = msg.value;\n        goods[id].buyer = msg.sender;\n    }\n\n    function acc(uint id) public {\n        require(goods[id].buyer == msg.sender);\n        require(goods[id].state == 1);\n        bal[goods[id].owner] += goods[id].money;\n        goods[id].state = 2;\n    }\n\n    function ret(uint id) public {\n        require(goods[id].buyer == msg.sender);\n        require(goods[id].state == 1);\n        bal[goods[id].buyer] += goods[id].money;\n        goods[id].state = 3;\n    }\n\n    function getback() public returns (bool) {\n        uint amount = bal[msg.sender];\n        if (amount > 0) {\n            bal[msg.sender] = 0;\n            if (!msg.sender.send(amount)) {\n                bal[msg.sender] = amount;\n                return false;\n            }\n        }\n        return true;\n    }\n\n    function getNum() public returns (uint) {\n        return num;\n    }\n\n    function getGoods(uint id) public returns (uint,address,address,uint,uint,uint) {\n        require(id <= num);\n        Good storage goodgood = goods[id];\n        return (goodgood.id,goodgood.owner,goodgood.buyer,goodgood.price,goodgood.state,goodgood.money);\n    }\n\n    function change(uint id, uint price) public {\n        require(goods[id].owner == msg.sender);\n        require(price > 0);\n        goods[id].price = price;\n        emit coming(id,price,now);\n    }\n}\n",
  "sourcePath": "/home/yuan/coding/dorahacksfinal/blockchains/contracts/shop.sol",
  "compiler": {
    "name": "solc",
    "version": "0.4.21+commit.dfe3193c.Emscripten.clang"
  },
  "schemaVersion": "2.0.0",
  "updatedAt": "2018-04-07T00:16:53.324Z"
}