{
  "contractName": "Shop",
  "abi": [
    {
      "constant": true,
      "inputs": [
        {
          "name": "",
          "type": "uint256"
        }
      ],
      "name": "goods",
      "outputs": [
        {
          "name": "id",
          "type": "uint256"
        },
        {
          "name": "owner",
          "type": "address"
        },
        {
          "name": "buyer",
          "type": "address"
        },
        {
          "name": "price",
          "type": "uint256"
        },
        {
          "name": "state",
          "type": "uint256"
        },
        {
          "name": "money",
          "type": "uint256"
        }
      ],
      "payable": false,
      "stateMutability": "view",
      "type": "function"
    },
    {
      "constant": true,
      "inputs": [],
      "name": "num",
      "outputs": [
        {
          "name": "",
          "type": "uint256"
        }
      ],
      "payable": false,
      "stateMutability": "view",
      "type": "function"
    },
    {
      "constant": true,
      "inputs": [
        {
          "name": "",
          "type": "address"
        }
      ],
      "name": "bal",
      "outputs": [
        {
          "name": "",
          "type": "uint256"
        }
      ],
      "payable": false,
      "stateMutability": "view",
      "type": "function"
    },
    {
      "inputs": [],
      "payable": true,
      "stateMutability": "payable",
      "type": "constructor"
    },
    {
      "constant": false,
      "inputs": [
        {
          "name": "price",
          "type": "uint256"
        }
      ],
      "name": "createGood",
      "outputs": [
        {
          "name": "",
          "type": "uint256"
        }
      ],
      "payable": false,
      "stateMutability": "nonpayable",
      "type": "function"
    },
    {
      "constant": false,
      "inputs": [
        {
          "name": "id",
          "type": "uint256"
        }
      ],
      "name": "buy",
      "outputs": [],
      "payable": true,
      "stateMutability": "payable",
      "type": "function"
    },
    {
      "constant": false,
      "inputs": [
        {
          "name": "id",
          "type": "uint256"
        }
      ],
      "name": "acc",
      "outputs": [],
      "payable": false,
      "stateMutability": "nonpayable",
      "type": "function"
    },
    {
      "constant": false,
      "inputs": [
        {
          "name": "id",
          "type": "uint256"
        }
      ],
      "name": "ret",
      "outputs": [],
      "payable": false,
      "stateMutability": "nonpayable",
      "type": "function"
    },
    {
      "constant": false,
      "inputs": [],
      "name": "getback",
      "outputs": [
        {
          "name": "",
          "type": "bool"
        }
      ],
      "payable": false,
      "stateMutability": "nonpayable",
      "type": "function"
    },
    {
      "constant": false,
      "inputs": [],
      "name": "getNum",
      "outputs": [
        {
          "name": "",
          "type": "uint256"
        }
      ],
      "payable": false,
      "stateMutability": "nonpayable",
      "type": "function"
    },
    {
      "constant": false,
      "inputs": [
        {
          "name": "id",
          "type": "uint256"
        }
      ],
      "name": "getGoods",
      "outputs": [
        {
          "name": "",
          "type": "uint256"
        },
        {
          "name": "",
          "type": "address"
        },
        {
          "name": "",
          "type": "address"
        },
        {
          "name": "",
          "type": "uint256"
        },
        {
          "name": "",
          "type": "uint256"
        },
        {
          "name": "",
          "type": "uint256"
        }
      ],
      "payable": false,
      "stateMutability": "nonpayable",
      "type": "function"
    }
  ],
  "bytecode": "0x6060604052600061025881905550610ada8061001c6000396000f3006060604052600436106100a4576000357c0100000000000000000000000000000000000000000000000000000000900463ffffffff1680632f724394146100a95780633a88ce301461015b57806345554d00146101925780634e70b1dc146101b55780635580f72a146101de57806367e0badb1461022b57806387a8bbad14610254578063b259003314610281578063d96a094a14610333578063e6b0eaf11461034b575b600080fd5b34156100b457600080fd5b6100ca600480803590602001909190505061036e565b604051808781526020018673ffffffffffffffffffffffffffffffffffffffff1673ffffffffffffffffffffffffffffffffffffffff1681526020018573ffffffffffffffffffffffffffffffffffffffff1673ffffffffffffffffffffffffffffffffffffffff168152602001848152602001838152602001828152602001965050505050505060405180910390f35b341561016657600080fd5b61017c60048080359060200190919050506103ef565b6040518082815260200191505060405180910390f35b341561019d57600080fd5b6101b360048080359060200190919050506104e5565b005b34156101c057600080fd5b6101c8610632565b6040518082815260200191505060405180910390f35b34156101e957600080fd5b610215600480803573ffffffffffffffffffffffffffffffffffffffff16906020019091905050610639565b6040518082815260200191505060405180910390f35b341561023657600080fd5b61023e610652565b6040518082815260200191505060405180910390f35b341561025f57600080fd5b61026761065d565b604051808215151515815260200191505060405180910390f35b341561028c57600080fd5b6102a26004808035906020019091905050610785565b604051808781526020018673ffffffffffffffffffffffffffffffffffffffff1673ffffffffffffffffffffffffffffffffffffffff1681526020018573ffffffffffffffffffffffffffffffffffffffff1673ffffffffffffffffffffffffffffffffffffffff168152602001848152602001838152602001828152602001965050505050505060405180910390f35b6103496004808035906020019091905050610818565b005b341561035657600080fd5b61036c6004808035906020019091905050610961565b005b60008160648110151561037d57fe5b600602016000915090508060000154908060010160009054906101000a900473ffffffffffffffffffffffffffffffffffffffff16908060020160009054906101000a900473ffffffffffffffffffffffffffffffffffffffff16908060030154908060040154908060050154905086565b60006102585460006102585460648110151561040757fe5b60060201600001819055503360006102585460648110151561042557fe5b6006020160010160006101000a81548173ffffffffffffffffffffffffffffffffffffffff021916908373ffffffffffffffffffffffffffffffffffffffff1602179055508160006102585460648110151561047d57fe5b60060201600301819055506000806102585460648110151561049b57fe5b6006020160040181905550600080610258546064811015156104b957fe5b600602016005018190555061025860008154809291906001019190505550600161025854039050919050565b3373ffffffffffffffffffffffffffffffffffffffff1660008260648110151561050b57fe5b6006020160020160009054906101000a900473ffffffffffffffffffffffffffffffffffffffff1673ffffffffffffffffffffffffffffffffffffffff1614151561055557600080fd5b600160008260648110151561056657fe5b600602016004015414151561057a57600080fd5b60008160648110151561058957fe5b6006020160050154610259600080846064811015156105a457fe5b6006020160010160009054906101000a900473ffffffffffffffffffffffffffffffffffffffff1673ffffffffffffffffffffffffffffffffffffffff1673ffffffffffffffffffffffffffffffffffffffff16815260200190815260200160002060008282540192505081905550600260008260648110151561062457fe5b600602016004018190555050565b6102585481565b6102596020528060005260406000206000915090505481565b600061025854905090565b60008061025960003373ffffffffffffffffffffffffffffffffffffffff1673ffffffffffffffffffffffffffffffffffffffff168152602001908152602001600020549050600081111561077c57600061025960003373ffffffffffffffffffffffffffffffffffffffff1673ffffffffffffffffffffffffffffffffffffffff168152602001908152602001600020819055503373ffffffffffffffffffffffffffffffffffffffff166108fc829081150290604051600060405180830381858888f19350505050151561077b578061025960003373ffffffffffffffffffffffffffffffffffffffff1673ffffffffffffffffffffffffffffffffffffffff1681526020019081526020016000208190555060009150610781565b5b600191505b5090565b6000806000806000806000808860648110151561079e57fe5b60060201905080600001548160010160009054906101000a900473ffffffffffffffffffffffffffffffffffffffff168260020160009054906101000a900473ffffffffffffffffffffffffffffffffffffffff168360030154846004015485600501549650965096509650965096505091939550919395565b3373ffffffffffffffffffffffffffffffffffffffff1660008260648110151561083e57fe5b6006020160010160009054906101000a900473ffffffffffffffffffffffffffffffffffffffff1673ffffffffffffffffffffffffffffffffffffffff161415151561088957600080fd5b60008160648110151561089857fe5b600602016003015434101515156108ae57600080fd5b600080826064811015156108be57fe5b60060201600401541415156108d257600080fd5b60016000826064811015156108e357fe5b6006020160040181905550346000826064811015156108fe57fe5b60060201600501819055503360008260648110151561091957fe5b6006020160020160006101000a81548173ffffffffffffffffffffffffffffffffffffffff021916908373ffffffffffffffffffffffffffffffffffffffff16021790555050565b3373ffffffffffffffffffffffffffffffffffffffff1660008260648110151561098757fe5b6006020160020160009054906101000a900473ffffffffffffffffffffffffffffffffffffffff1673ffffffffffffffffffffffffffffffffffffffff161415156109d157600080fd5b60016000826064811015156109e257fe5b60060201600401541415156109f657600080fd5b600081606481101515610a0557fe5b600602016005015461025960008084606481101515610a2057fe5b6006020160020160009054906101000a900473ffffffffffffffffffffffffffffffffffffffff1673ffffffffffffffffffffffffffffffffffffffff1673ffffffffffffffffffffffffffffffffffffffff168152602001908152602001600020600082825401925050819055506003600082606481101515610aa057fe5b6006020160040181905550505600a165627a7a72305820825d0b30357ecd915a5a696652415632a733ddf4dbd85b1426c3f76a6689d5160029",
  "source": "pragma solidity ^0.4.17;\n\ncontract Shop {\n    struct Good{\n        uint id;\n        address owner;\n        address buyer;\n        uint price;\n        uint state;\n        uint money;\n    }\n\n    Good[100] public goods;\n    uint public num;\n    mapping(address => uint) public bal;\n\n    function Shop() payable public {\n        num = 0;\n    }\n\n\n    function createGood(uint price) public returns (uint){\n        goods[num].id = num;\n        goods[num].owner = msg.sender;\n        goods[num].price = price;\n        goods[num].state = 0;\n        goods[num].money = 0;\n        num ++;\n        return num-1;\n    }\n\n    function buy(uint id) payable public {\n        require(goods[id].owner != msg.sender);\n        require(msg.value >= goods[id].price);\n        require(goods[id].state == 0);\n        goods[id].state = 1;\n        goods[id].money = msg.value;\n        goods[id].buyer = msg.sender;\n    }\n\n    function acc(uint id) public {\n        require(goods[id].buyer == msg.sender);\n        require(goods[id].state == 1);\n        bal[goods[id].owner] += goods[id].money;\n        goods[id].state = 2;\n    }\n\n    function ret(uint id) public {\n        require(goods[id].buyer == msg.sender);\n        require(goods[id].state == 1);\n        bal[goods[id].buyer] += goods[id].money;\n        goods[id].state = 3;\n    }\n\n    function getback() public returns (bool) {\n        uint amount = bal[msg.sender];\n        if (amount > 0) {\n            bal[msg.sender] = 0;\n            if (!msg.sender.send(amount)) {\n                bal[msg.sender] = amount;\n                return false;\n            }\n        }\n        return true;\n    }\n\n    function getNum() public returns (uint) {\n        return num;\n    }\n\n    function getGoods(uint id) public returns (uint,address,address,uint,uint,uint) {\n        Good storage goodgood = goods[id];\n        return (goodgood.id,goodgood.owner,goodgood.buyer,goodgood.price,goodgood.state,goodgood.money);\n    }\n}\n",
  "sourcePath": "/home/yuan/coding/dorahacksfinal/blockchains/contracts/shop.sol",
  "compiler": {
    "name": "solc",
    "version": "0.4.21+commit.dfe3193c.Emscripten.clang"
  },
  "schemaVersion": "2.0.0",
  "updatedAt": "2018-04-06T13:44:36.977Z"
}